:100000000C949F000C94C7000C94C7000C94C7007C
:100010000C94C7000C94C7000C94C7000C94C70044
:100020000C94C7000C94C7000C94C7000C94C70034
:100030000C94C7000C94C7000C94C7000C94C70024
:100040000C94FF050C94C7000C946F060C944906A1
:100050000C94C7000C94C7000C94C7000C94C70004
:100060000C94C7000C94C70007634236B79BD8A70F
:100070001A39685618AEBAAB558C1D3CB7CC5763CD
:10008000BD6DEDFD753EF6177231BF000000803F7B
:1000900008000000BE922449123EABAAAA2ABECD97
:1000A000CCCC4C3E00000080BEABAAAAAA3E000009
:1000B0000000BF000000803F000000000008417801
:1000C000D3BB4387D1133D190E3CC3BD4282AD2B38
:1000D0003E68EC8276BED98FE1A93E4C80EFFFBE30
:1000E00001C4FF7F3F000000000000000008000284
:1000F00001000003040700000000000000000000F1
:100100000000250028002B0000000000240027002C
:100110002A00040404040404040402020202020289
:1001200003030303030301020408102040800102BB
:1001300004081020010204081020A106E609112479
:100140001FBECFEFD8E0DEBFCDBF22E0A2E8B1E016
:1001500001C01D92AF34B207E1F711E0A0E0B1E0B9
:10016000E4E6F0E202C005900D92A238B107D9F79B
:1001700010E0CEE9D0E004C02197FE010E94100EED
:10018000CD39D107C9F70E94FA060C9425100C94BA
:10019000000090E0FC01EA5DFE4F24918E5E9E4FD0
:1001A000FC018491882399F090E0880F991FFC014D
:1001B000E85FFE4FA591B491FC01E250FF4F85919D
:1001C00094918FB7F894EC91E22BEC938FBF089544
:1001D00090E0FC01E651FF4F2491FC01EA5DFE4FE7
:1001E0003491FC01EE5EFE4FE491EE23C9F0222330
:1001F00039F0233001F1A8F4213019F1223029F12E
:10020000F0E0EE0FFF1FE250FF4FA591B4918FB7C2
:10021000F894EC91611126C030953E233C938FBF3A
:1002200008952730A9F02830C9F0243049F780918B
:1002300080008F7D03C0809180008F778093800045
:10024000DFCF84B58F7784BDDBCF84B58F7DFBCFC7
:100250008091B0008F778093B000D2CF8091B000B2
:100260008F7DF9CF3E2BDACF3FB7F894809188018C
:1002700090918901A0918A01B0918B0126B5A89B2C
:1002800005C02F3F19F00196A11DB11D3FBFBA2F28
:10029000A92F982F8827BC01CD01620F711D811DE8
:1002A000911D42E0660F771F881F991F4A95D1F76D
:1002B0000895AF92BF92CF92DF92EF92FF920F9389
:1002C0001F93CF93DF936C017B018B01040F151FEC
:1002D000EB015E01AE18BF08C017D10759F0699154
:1002E000D601ED91FC910190F081E02DC6010995B8
:1002F000892B79F7C501DF91CF911F910F91FF9065
:10030000EF90DF90CF90BF90AF900895FC01538D98
:10031000448D252F30E0842F90E0821B930B5417DF
:1003200010F0CF96089501970895FC01918D828D6C
:10033000981761F0A28DAE0FBF2FB11D5D968C9105
:10034000928D9F5F9F73928F90E008958FEF9FEF44
:1003500008952FB7F89480918C0190918D01A09110
:100360008E01B0918F012FBF8093980190939901D6
:10037000A0939A01B0939B0180E991E00E949501BE
:1003800097FF26C02FB7F89480918C0190918D0132
:10039000A0918E01B0918F012FBF40919801509193
:1003A000990160919A0170919B01841B950BA60B9A
:1003B000B70B409194015091950160919601709115
:1003C000970184179507A607B707B0F28FEF9FEF45
:1003D0000895FC01918D828D981731F0828DE80F80
:1003E000F11D858D90E008958FEF9FEF0895FC013A
:1003F000918D228D892F90E0805C9F4F821B910907
:100400008F739927089580E991E00E94F70121E018
:10041000892B09F420E0822F089580E090E0892B59
:1004200029F00E94030281110C9400000895FC0140
:10043000A48DA80FB92FB11DA35ABF4F2C91848D45
:1004400090E001968F739927848FA689B7892C93A2
:10045000A089B1898C91837080648C93938D848DF5
:10046000981306C00288F389E02D80818F7D8083F8
:100470000895EF92FF920F931F93CF93DF93EC01B8
:1004800081E0888F9B8D8C8D98131AC0E889F9893B
:10049000808185FF15C09FB7F894EE89FF8960833E
:1004A000E889F98980818370806480839FBF81E0BF
:1004B00090E0DF91CF911F910F91FF90EF90089501
:1004C000F62E0B8D10E00F5F1F4F0F731127E02EDC
:1004D0008C8D8E110CC00FB607FCFACFE889F98914
:1004E000808185FFF5CFCE010E941702F1CFEB8D01
:1004F000EC0FFD2FF11DE35AFF4FF0829FB7F894E8
:100500000B8FEA89FB8980818062CFCFCF93DF9305
:10051000EC01888D8823B9F0AA89BB89E889F9891B
:100520008C9185FD03C0808186FD0DC00FB607FC50
:10053000F7CF8C9185FFF2CF808185FFEDCFCE0183
:100540000E941702E9CFDF91CF910895089590E0BE
:1005500080E00895CF93DF93EC0160E08E810E94EC
:10056000E80061E08E810E94E80060E08E810E94D8
:10057000E8008BE891E00197F1F7DF91CF910895C2
:10058000CF92DF92EF92FF920F931F93CF93DF935F
:100590006C017C0187E0E80EF11CD0E0C0E0062F82
:1005A00010E0B8010C2E02C0759567950A94E2F729
:1005B0006170F70181917F010E94E8002196C430AB
:1005C000D10579F7C601DF91CF911F910F91FF906F
:1005D000EF90DF90CF900C94AA02CF92DF92EF922F
:1005E000FF920F931F93CF93DF93EC01F62E642FAE
:1005F0008C810E94E8008D818F3F19F060E00E949D
:10060000E8000F2D10E08F8584FF25C06E0187E084
:10061000C80ED11CF12CE12CB8010E2C02C075952E
:1006200067950A94E2F76170F60181916F010E946B
:10063000E800FFEFEF1AFF0A88E0E816F10461F71F
:10064000CE01DF91CF911F910F91FF90EF90DF903E
:10065000CF900C94AA02B80184E0759567958A95AD
:10066000E1F7CE010E94C0026F2DCE01DF91CF9144
:100670001F910F91FF90EF90DF90CF900C94C002EC
:1006800040E0682F83E392E00C94ED02CF93DF9378
:10069000823029F4909142029860909342028093B4
:1006A00046021092470280E48093480280E18093E2
:1006B000490280E580934A02809137020E94C90076
:1006C000809138028F3F11F00E94C9008091390259
:1006D0000E94C900C3E3D2E09E01235332408091BF
:1006E000420284FD0AC084E090E021962817390771
:1006F0003CF48E810E94C900EFCF88E090E0F5CFF6
:100700008BE39DE00197F1F760E0809137020E9452
:10071000E80060E0809139020E94E8008091380290
:100720008F3F19F060E00E94E8008091420284FD52
:1007300039C063E083E392E00E94C002CBE4D6E4D8
:10074000CE010197F1F763E083E392E00E94C002DB
:100750002197F1F763E083E392E00E94C00283E512
:1007600092E00197F1F762E083E392E00E94C00219
:100770008091420280620E94400384E080934302A1
:100780008CE00E94400381E00E9440038BE39FE1E4
:100790000197F1F782E08093440286E0DF91CF91E8
:1007A0000C94400380620E9440038BE496E401971E
:1007B000F1F78091420280620E94400383E592E05B
:1007C0000197F1F78091420280620E944003D0CFEE
:1007D00090914602891710F08FEF890FE82FF0E013
:1007E000ED5CFD4F848980680C94400341E00E94D9
:1007F000ED0281E090E00895FB0101900020E9F70F
:100800003197AF01461B570BDC01ED91FC91028043
:10081000F381E02D09948F929F92AF92BF92EF9255
:10082000FF920F931F93CF93DF93CDB7DEB7A197BE
:100830000FB6F894DEBF0FBECDBF7C01FA01CB012D
:1008400019A2223008F42AE08E010F5D1F4F822E7C
:10085000912CB12CA12CBF01A50194010E94EE0D99
:10086000F901CA016A300CF5605DD8016E938D0103
:10087000232B242B252B79F790E080E0109721F093
:10088000BD01C7010E94FC03A1960FB6F894DEBF1C
:100890000FBECDBFDF91CF911F910F91FF90EF90D1
:1008A000BF90AF909F908F900895695CDECF2F929C
:1008B0003F924F925F926F927F928F929F92AF92F0
:1008C000BF92CF92DF92EF92FF921F93CF93DF936D
:1008D000EC016A017B01722EAB019601CB01B601DE
:1008E0000E94B40C60E371E0811126C046015701FB
:1008F000E894B7F82FEF3FEF4FE75FE7C501B4018A
:100900000E94B40C81110CC02FEF3FEF4FE75FE75F
:10091000C501B4010E94F30964E371E0181664F0A4
:100920002FEF3FEF4FE75FE4C701B6010E945F0C76
:100930001816B4F468E371E0CE01DF91CF911F91F6
:10094000FF90EF90DF90CF90BF90AF909F908F90EF
:100950007F906F905F904F903F902F900C94FC038E
:100960002FEF3FEF4FE75FECC701B6010E94F3099D
:1009700087FDE0CF20E030E0A901C701B6010E9469
:10098000F309312C212C87FF0DC0E881F9810190FA
:10099000F081E02D6DE2CE0109951C01F7FAF0948B
:1009A000F7F8F09410E060E070E080E09FE37116EB
:1009B00041F020E030E040E251E40E94BE0B1F5FB6
:1009C000F6CFA70196010E94520B2B013C010E9419
:1009D000300C4B015C012AE0BC01A401CE010E9455
:1009E0000B047C01E20CF31C1123E1F1C501B401FD
:1009F0000E94F8099B01AC01C301B2010E94510B96
:100A00004B015C01E881F9810190F081E02D6EE2FB
:100A1000CE010995E80EF91E115020F120E030E0DA
:100A200040E251E4C501B4010E94590A2B013C0186
:100A30000E94300C4B01B12CA12C2AE0B501A4017D
:100A4000CE010E940B04E80EF91EC501B4010E94FC
:100A5000F8099B01AC01C301B2010E94510B4B018B
:100A60005C01DACFC701DF91CF911F91FF90EF902A
:100A7000DF90CF90BF90AF909F908F907F906F90BE
:100A80005F904F903F902F9008950C94FC03FC01D1
:100A900080819181009711F00C94B20E0895AF926D
:100AA000BF92CF92DF92EF92FF920F931F93CF935B
:100AB000DF93DC01CD90DC901197C114D10439F0A3
:100AC0001496CD91DC918C017601209761F4DF9131
:100AD000CF911F910F91FF90EF90DF90CF90BF903B
:100AE000AF90089575015701BFEFAB1ABB0AF7012C
:100AF0008081082E000C990B0E94EA09892B91F73E
:100B00002197CC0DDD1D8881082E000C990B0E94C9
:100B1000EA09892B29F0CE15DF0510F02197F3CFD4
:100B2000AE014F5F5F4F4E195F09D80115965C9378
:100B30004E931497CE14DF0420F4B701C6010E942F
:100B4000F80FD801ED91FC91119714968D919C911D
:100B5000E80FF91F1082BBCF0F931F93CF93DF9342
:100B6000EC0188819981009759F02A813B812617F1
:100B7000370730F081E0DF91CF911F910F910895F9
:100B80008B016F5F7F4F0E943B0F009759F0998355
:100B900088831B830A832C813D81232B59F7FC0119
:100BA0001082E8CF80E0E7CFEF92FF920F931F9380
:100BB000CF93DF93EC017B018A01BA010E94AC055F
:100BC00028813981811114C02115310519F0C9011D
:100BD0000E94B20E198218821D821C821B821A8208
:100BE000CE01DF91CF911F910F91FF90EF9008956B
:100BF0001D830C83B701C9010E940110F1CF1F9220
:100C00000F920FB60F9211242F933F938F939F93C0
:100C1000AF93BF9380918C0190918D01A0918E0133
:100C2000B0918F013091870123E0230F2D3758F5C4
:100C30000196A11DB11D2093870180938C01909393
:100C40008D01A0938E01B0938F01809188019091C6
:100C50008901A0918A01B0918B010196A11DB11D5E
:100C60008093880190938901A0938A01B0938B01AE
:100C7000BF91AF919F918F913F912F910F900FBE98
:100C80000F901F90189526E8230F0296A11DB11D05
:100C9000D2CF1F920F920FB60F9211242F933F9332
:100CA0004F935F936F937F938F939F93AF93BF9374
:100CB000EF93FF9380E991E00E941702FF91EF917B
:100CC000BF91AF919F918F917F916F915F914F9164
:100CD0003F912F910F900FBE0F901F9018951F926C
:100CE0000F920FB60F9211242F938F939F93EF9330
:100CF000FF93E091A001F091A1018081E091A60114
:100D0000F091A70182FD1BC090818091A9018F5FA6
:100D10008F732091AA01821741F0E091A901F0E0C0
:100D2000E057FE4F958F8093A901FF91EF919F911E
:100D30008F912F910F900FBE0F901F90189580816B
:100D4000F4CFE0E9F1E01382128288EE93E0A0E0B4
:100D5000B0E084839583A683B7838AE091E0918392
:100D6000808385EC90E09587848784EC90E097877A
:100D7000868780EC90E0918B808B81EC90E0938B68
:100D8000828B82EC90E0958B848B86EC90E0978B45
:100D9000868B118E128E138E148EE3E3F2E0138293
:100DA00012828CE191E09183808382E084838FEFD3
:100DB000858383E0868384E0878385E080878BE07A
:100DC00081878CE08287138614861586168617869F
:100DD00081E00E944603EDE2F2E01182108213826C
:100DE0001282158214824BE050E064E271E0CF0180
:100DF0000C94D405CF93DF93CDB7DEB72C970FB605
:100E0000F894DEBF0FBECDBF789484B5826084BDF8
:100E100084B5816084BD85B5826085BD85B58160FE
:100E200085BD80916E00816080936E00109281007C
:100E30008091810082608093810080918100816037
:100E400080938100809180008160809380008091F8
:100E5000B10084608093B1008091B0008160809384
:100E6000B00080917A00846080937A0080917A004B
:100E7000826080937A0080917A00816080937A000A
:100E800080917A00806880937A001092C10087E098
:100E90000E94C90060E087E00E94E800E091A001A4
:100EA000F091A10182E08083E0919C01F0919D018D
:100EB0001082E0919E01F0919F018FEC808310924F
:100EC000A801E091A401F091A50186E08083E09162
:100ED000A201F091A301808180618083E091A20151
:100EE000F091A301808188608083E091A201F0915C
:100EF000A301808180688083E091A201F091A30129
:100F000080818F7D808382E390E0A0E0B0E08093D9
:100F1000940190939501A0939601B093970182E07C
:100F20000E94460381E00E9440038BE39FE101970A
:100F3000F1F780E00E94E80363E471E083E392E06C
:100F40000E94450564E271E083E392E00E9445055A
:100F500081E00E94E80367E471E083E392E00E948D
:100F6000450580E991E00E94F701892B09F4C7C08B
:100F700018861F821A8619861C861B8650E040E060
:100F80006DE571E0CE0107960E94D4050E94A9018B
:100F900097FD1EC08A309105D9F089831A820B858E
:100FA0001C850F5F1F4FB801CE0107960E94AC054C
:100FB000882361F32F8138858B859C85BE016F5F07
:100FC0007F4F820F931F0E9401101C870B87DECF7B
:100FD000CE0107960E944F051A8219821C821B823D
:100FE0001E821D8243E050E063E471E0CE01019671
:100FF0000E94D4054D815E818B859C858417950761
:1010000070F08F819885009751F069817A81611520
:10101000710529F00E94081011E0892B09F010E0F9
:10102000CE0101960E944705112301F14B855C8595
:1010300041155105B9F063E070E04330510508F403
:10104000BA018F819885461B570B5C874B87680FC9
:10105000791F0E941610EF81F8858B859C85E80F1B
:10106000F91F1082CE0107960E944F054B855C85C3
:101070004115510509F4C1C06F81788530E020E049
:10108000FB01E20FF31F6115710521F4109282013B
:10109000E2E8F1E08081082E000C990BC0970A97D6
:1010A00008F0ABC02F5F3F4F4217530749F74C3052
:1010B000510508F0A2C06115710509F489C08DE2DF
:1010C00092E00E94D40563E571E080E991E00E941E
:1010D0004505409131025091320260912D0270918C
:1010E0002E0280E991E00E9459016BE571E080E9F0
:1010F00091E00E94FC03CE0107960E9447052FB79E
:10110000F89480918C0190918D01A0918E01B09105
:101110008F012FBF4091830150918401609185011F
:10112000709186018C019D01041B150B260B370B5A
:10113000B901A8014A3F51056105710508F439C19B
:101140008093830190938401A0938501B0938601DD
:101150001AE0C12CD12C760100E400937C00809130
:101160007A00806480937A0080917A0086FDFCCFBB
:101170008091780090917900092E000CAA0BBB0B8E
:10118000C80ED91EEA1EFB1E0E9434014B015C01F1
:1011900042E0442E512C612C712C0E9434016819BC
:1011A00079098A099B09683E734081059105A8F376
:1011B00028EE820E23E0921EA11CB11C4A94452801
:1011C0004628472809F1412C512C32014394E5CFA0
:1011D00080912D0290912E02009711F00E94B20E84
:1011E00010922E0210922D021092320210923102B1
:1011F0001092300210922F0266CF6EE571E080E906
:1012000091E00E94FC0371CF115009F0A6CFC701F5
:10121000B6010E94FA0920E030E040E251E40E9469
:10122000BE0B2AE038E240EA5BE30E94590A6B01F8
:101230007C012DEC3CEC4CEC5DE30E945F0C18163D
:101240000CF05AC02EE03DE24AE95FEBC701B6015F
:101250000E94640C22EF32ED4DED51E40E94590AD8
:101260006B017C0120E030E040E251E40E94F30990
:1012700087FD49C020E030E040EA52E4C701B601F2
:101280000E945F0C18160CF445C011E020E030E01D
:1012900040E152E4C701B6010E945F0C18160CF041
:1012A00010E0612F87E00E94E80080E00E94E803E0
:1012B00063E471E083E392E00E94450540913102CE
:1012C0005091320260912D0270912E0283E392E0E0
:1012D0000E94590100913102109132020D5F1F4F9F
:1012E00000311105FCF441E060E283E392E00E94EA
:1012F000ED020F5F1F4FF4CFC12CD12C20EAE22E5C
:1013000022E4F22EC2CFC12CD12C90E2E92E91E43E
:10131000F92EC6CFC12CD12C80EAE82E82E4F82E1B
:1013200011E0BFCF81E00E94E8036FE671E083E344
:1013300092E00E94450521E0B701A60183E392E017
:101340000E94570460E571E083E392E00E94450546
:1013500065E771E083E392E00E9445056FE671E086
:1013600080E991E00E94450521E0B701A60180E9EE
:1013700091E00E94570469E771E080E991E00E94E2
:10138000450520E030E040E152E4C701B6010E948B
:101390005F0C6CE371E0181614F460E471E080E90E
:1013A00091E00E94FC036BE571E080E991E00E940E
:1013B000FC0380E090E0892B09F4D3CD0E94030266
:1013C000882309F4CECD0E940000CBCD8DE292E0BF
:1013D0000C94470591110C94C60A803219F089507B
:1013E0008550C8F708950E94350A08F481E00895F1
:1013F000E89409C097FB3EF49095809570956195AF
:101400007F4F8F4F9F4F9923A9F0F92F96E9BB2764
:101410009395F695879577956795B795F111F8CFE0
:10142000FAF4BB0F11F460FF1BC06F5F7F4F8F4F4B
:101430009F4F16C0882311F096E911C0772321F041
:101440009EE8872F762F05C0662371F096E8862FD9
:1014500070E060E02AF09A95660F771F881FDAF730
:10146000880F9695879597F90895990F0008550F5D
:10147000AA0BE0E8FEEF16161706E807F907C0F01A
:1014800012161306E407F50798F0621B730B840B22
:10149000950B39F40A2661F0232B242B252B21F4FC
:1014A00008950A2609F4A140A6958FEF811D811D9C
:1014B00008950E946C0A0C94E00A0E94D20A38F047
:1014C0000E94D90A20F0952311F00C94C90A0C94BB
:1014D000CF0A11240C94140B0E94F10A70F3959F0B
:1014E000C1F3950F50E0551F629FF001729FBB271B
:1014F000F00DB11D639FAA27F00DB11DAA1F649FB7
:101500006627B00DA11D661F829F2227B00DA11D69
:10151000621F739FB00DA11D621F839FA00D611DEF
:10152000221F749F3327A00D611D231F849F600D10
:10153000211D822F762F6A2F11249F5750409AF039
:10154000F1F088234AF0EE0FFF1FBB1F661F771FC5
:10155000881F91505040A9F79E3F510580F00C9490
:10156000C90A0C94140B5F3FE4F3983ED4F38695BC
:1015700077956795B795F795E7959F5FC1F7FE2B30
:10158000880F911D9695879597F908959927882733
:10159000089597F99F6780E870E060E008959FEFF5
:1015A00080EC089500240A941616170618060906FA
:1015B000089500240A9412161306140605060895C9
:1015C000092E0394000C11F4882352F0BB0F40F451
:1015D000BF2B11F460FF04C06F5F7F4F8F4F9F4F91
:1015E000089557FD9058440F551F59F05F3F71F013
:1015F0004795880F97FB991F61F09F3F79F087957A
:101600000895121613061406551FF2CF4695F1DF02
:1016100008C0161617061806991FF1CF8695710592
:10162000610508940895E894BB2766277727CB01C6
:1016300097F908952F923F924F925F926F927F9207
:101640008F929F92AF92BF92CF92DF92EF92FF92D2
:101650000F931F93CF93DF93CDB7DEB7CA1BDB0B7E
:101660000FB6F894DEBF0FBECDBF09942A88398823
:1016700048885F846E847D848C849B84AA84B9842A
:10168000C884DF80EE80FD800C811B81AA81B98136
:10169000CE0FD11D0FB6F894DEBF0FBECDBFED014A
:1016A00008955058BB27AA270E94690B0C94E00AA2
:1016B0000E94D20A38F00E94D90A20F039F49F3FE4
:1016C00019F426F40C94CF0A0EF4E095E7FB0C9481
:1016D000C90AE92F0E94F10A58F3BA176207730783
:1016E0008407950720F079F4A6F50C94130B0EF4FB
:1016F000E0950B2EBA2FA02D0B01B90190010C0122
:10170000CA01A0011124FF27591B99F0593F50F439
:10171000503E68F11A16F040A22F232F342F442791
:10172000585FF3CF469537952795A795F040539589
:10173000C9F77EF41F16BA0B620B730B840BBAF059
:101740009150A1F0FF0FBB1F661F771F881FC2F7C4
:101750000EC0BA0F621F731F841F48F487957795D8
:101760006795B795F7959E3F08F0B0CF9395880F92
:1017700008F09927EE0F9795879508950E94D20B50
:101780000C94E00A0E94D90A58F00E94D20A40F054
:1017900029F45F3F29F00C94C90A51110C94140BE1
:1017A0000C94CF0A0E94F10A68F39923B1F35523F0
:1017B00091F3951B550BBB27AA2762177307840764
:1017C00038F09F5F5F4F220F331F441FAA1FA9F3FA
:1017D00035D00E2E3AF0E0E832D091505040E695E8
:1017E000001CCAF72BD0FE2F29D0660F771F881F49
:1017F000BB1F261737074807AB07B0E809F0BB0B3C
:10180000802DBF01FF2793585F4F3AF09E3F51054F
:1018100078F00C94C90A0C94140B5F3FE4F3983EE3
:10182000D4F3869577956795B795F7959F5FC9F738
:10183000880F911D9695879597F90895E1E0660FB9
:10184000771F881FBB1F621773078407BA0720F032
:10185000621B730B840BBA0BEE1F88F7E09508959B
:101860000E94F90A88F09F5798F0B92F9927B7512D
:10187000B0F0E1F0660F771F881F991F1AF0BA9534
:10188000C9F714C0B13091F00E94130BB1E0089574
:101890000C94130B672F782F8827B85F39F0B93F66
:1018A000CCF3869577956795B395D9F73EF49095E7
:1018B0008095709561957F4F8F4F9F4F08950E943F
:1018C000350A08F48FEF0895FA01EE0FFF1F3096E6
:1018D00021053105A1F16115710561F48038BFE37F
:1018E0009B0749F168949038810561F08038BFEF1B
:1018F0009B0741F099234AF5FF3FE105310521059A
:1019000019F1E8940894E795D901AA2329F4AB2F9B
:10191000BE2FF85FD0F310C0FF5F70F4A695E0F71C
:10192000F73950F019F0FF3A38F49F779F930DD0B4
:101930000F9007FC9058089546F00C94CF0A60E091
:1019400070E080E89FE308954FE79F775F934F93A0
:101950003F932F930E94640D2F913F914F915F9180
:101960000E94590A0C94C10C0E94350A880B990BED
:10197000089529F416F00C94C90A0C94130B0C94D6
:10198000CF0A0E94F90AA8F39638A0F707F80F9239
:10199000E8942BE33AEA48EB5FE70E946F0A0F9264
:1019A0000F920F924DB75EB70F920E94AC0DE8E612
:1019B000F0E00E94F30C4F915F91EF91FF91E5955C
:1019C000EE1FFF1F49F0FE57E0684427EE0F441F4B
:1019D000FA95E1F74195550B0E94260D0F9007FEF1
:1019E0000C941A0D0895DF93CF931F930F93FF92DA
:1019F000EF92DF927B018C01689406C0DA2EEF0132
:101A00000E946C0AFE01E894A591259135914591BB
:101A10005591A6F3EF010E94690BFE019701A80101
:101A2000DA9469F7DF90EF90FF900F911F91CF91BB
:101A3000DF9108959B01AC0160E070E080E89FE3D6
:101A40000C94BE0B0C94C90A0C94E00D0E94F90A88
:101A5000D8F39923C9F3940F511DA3F3915050402B
:101A600094F059F0882332F0660F771F881F915049
:101A70005040C1F79E3F51052CF7880F911D969558
:101A8000879597F908955F3FACF0983E9CF0BB278F
:101A9000869577956795B79508F4B1609395C1F7EA
:101AA000BB0F58F711F460FFE8CF6F5F7F4F8F4F88
:101AB0009F4FE3CF0C94140B16F00C94E00D0C9494
:101AC000CF0A68940C94C90A0E94F90AA8F39923D2
:101AD000C1F3AEF3DF93CF931F930F93FF92C92F00
:101AE000DD2788232AF02197660F771F881FDAF7F2
:101AF00020E030E040E85FEB9FE3883920F0803E53
:101B000038F021968F770E94520BE0E9F0E004C094
:101B10000E94520BEDEBF0E00E94F30C8B01BE0132
:101B2000EC01FB2E6F5771097595771F880B990B88
:101B30000E94FA0928E132E741E35FE30E946C0A60
:101B4000AF2D9801AE01FF900F911F91CF91DF91C2
:101B50000E94690B0C94E00AFA01DC01AA0FBB1F7A
:101B60009B01AC01BF5728F4222733274427507824
:101B700020C0B75190F4AB2F002446953795279598
:101B8000011CA395D2F3002071F0220F331F441FD4
:101B9000B395DAF30ED00C94510B61307105A0E8C7
:101BA0008A07B94630F49B01AC016627772788275E
:101BB0009078309621F020833183428353830895B7
:101BC0009F3F31F0915020F4879577956795B795B1
:101BD000880F911D9695879597F90895A1E21A2E81
:101BE000AA1BBB1BFD010DC0AA1FBB1FEE1FFF1FC1
:101BF000A217B307E407F50720F0A21BB30BE40B11
:101C0000F50B661F771F881F991F1A9469F7609557
:101C10007095809590959B01AC01BD01CF01089511
:101C2000EE0FFF1F0590F491E02D09940F931F9381
:101C3000CF93DF938230910510F482E090E0E09141
:101C40004D02F0914E0230E020E0B0E0A0E030978D
:101C500099F42115310509F44AC0281B390B2430A9
:101C60003105D8F58A819B816115710589F1FB01E8
:101C700093838283FE0111C04081518102811381CF
:101C800048175907E0F04817590799F4109761F081
:101C900012960C93129713961C933296CF01DF91F4
:101CA000CF911F910F91089500934D0210934E0212
:101CB000F4CF2115310551F04217530738F0A9012F
:101CC000DB019A01BD01DF01F801C1CFEF01F9CFBE
:101CD00090934E0280934D02CDCFFE01E20FF31F91
:101CE000819391932250310939832883D7CF209152
:101CF0004B0230914C02232B41F420910201309190
:101D0000030130934C0220934B022091000130914B
:101D100001012115310541F42DB73EB74091040171
:101D200050910501241B350BE0914B02F0914C02C0
:101D3000E217F307A0F42E1B3F0B2817390778F0A2
:101D4000AC014E5F5F4F2417350748F04E0F5F1F01
:101D500050934C0240934B02819391939FCFF0E0BC
:101D6000E0E09CCFCF93DF930097E9F0FC0132973E
:101D700013821282A0914D02B0914E02ED0130E02B
:101D800020E01097A1F420813181820F931F2091D0
:101D90004B0230914C022817390709F061C0F093CB
:101DA0004C02E0934B02DF91CF910895EA01CE17E8
:101DB000DF07E8F54A815B819E0141155105B1F7C6
:101DC000E901FB83EA8349915991C40FD51FEC17B0
:101DD000FD0761F4808191810296840F951FE901CE
:101DE00099838883828193819B838A83F0E0E0E0FA
:101DF00012968D919C9113970097B9F52D913C9176
:101E00001197CD010296820F931F20914B023091C2
:101E10004C022817390739F6309751F510924E02C7
:101E200010924D02B0934C02A0934B02BCCFD383CF
:101E3000C28340815181840F951FC817D90761F46F
:101E40004E5F5F4F88819981480F591F51834083AE
:101E50008A819B81938382832115310509F0B0CF5C
:101E6000F0934E02E0934D029ECFFD01DC01C0CF06
:101E700013821282D7CFB0E0A0E0E1E4FFE00C943F
:101E80001C0B8C01009751F4CB010E94160E8C01A3
:101E9000C801CDB7DEB7E0E10C94380BFC01E60FCA
:101EA000F71F9C0122503109E217F30708F49DC087
:101EB000D901CD91DC911197C617D70798F0C5309D
:101EC000D10530F3CE0104978617970708F3C61B98
:101ED000D70B2297C193D1936D937C93CF010E942E
:101EE000B20ED6CF5B01AC1ABD0A4C018C0E9D1E02
:101EF000A0914D02B0914E02512C412CF12CE12CBD
:101F0000109731F580914B0290914C0288159905FC
:101F100009F05CC04616570608F058C080910001D1
:101F200090910101009741F48DB79EB74091040153
:101F300050910501841B950BE817F90708F055C06F
:101F4000F0934C02E0934B02F90171836083A0CFC0
:101F50008D919C91119712966C90129713967C908C
:101F60001397A815B90559F56C0142E0C40ED11CB0
:101F7000CA14DB0420F1AC014A195B09DA0112969C
:101F8000159780F06282738251834083D9016D93EB
:101F90007C93E114F10471F0D7011396FC93EE9356
:101FA000129776CF22968C0F9D1FF9019183808323
:101FB000F301EFCFF0934E02E0934D0269CF481644
:101FC000590608F42C017D01D3019ACFCB010E9460
:101FD000160E7C01009749F0AE01B8010E94F80F7F
:101FE000C8010E94B20E870153CF10E000E050CF2D
:101FF000FB01DC0102C001900D9241505040D8F726
:102000000895FB01DC0101900D920020E1F7089595
:10201000FB01DC014150504030F08D91019080195E
:1020200019F40020B9F7881B990B0895FB01DC0116
:102030004150504048F001900D920020C9F701C076
:102040001D9241505040E0F7089510E0CEE9D0E0F5
:1020500004C0FE010E94100E2196CF39D107C9F7A6
:04206000F894FFCF22
:1020640000004F028000000000003902590186017F
:102074008602F7019501E90100000000F603590109
:10208400A702A602323330303932303034393600C8
:102094006E616E00696E66006F7666004F4646009C
:1020A4004F4E0049443A00444953543A2D2D2E2DA5
:1020B400636D0041434B3A49443D000D0A004552CB
:1020C400524F523A494E56414C49445F49440044A8
:1020D4004953543A00202020002C4D4F544F523A7B
:0220E4000000FA
:00000001FF
